{"abi":[{"type":"function","name":"createTopic","inputs":[{"name":"cid","type":"string","internalType":"string"},{"name":"duration","type":"uint256","internalType":"uint256"}],"outputs":[{"name":"topicId","type":"uint256","internalType":"uint256"}],"stateMutability":"nonpayable"},{"type":"function","name":"getTopicInfo","inputs":[{"name":"topicId","type":"uint256","internalType":"uint256"}],"outputs":[{"name":"yesVotes","type":"uint256","internalType":"uint256"},{"name":"noVotes","type":"uint256","internalType":"uint256"},{"name":"endTimestamp","type":"uint256","internalType":"uint256"}],"stateMutability":"view"},{"type":"function","name":"hasUserVoted","inputs":[{"name":"topicId","type":"uint256","internalType":"uint256"},{"name":"user","type":"address","internalType":"address"}],"outputs":[{"name":"","type":"bool","internalType":"bool"}],"stateMutability":"view"},{"type":"function","name":"hasVoted","inputs":[{"name":"","type":"uint256","internalType":"uint256"},{"name":"","type":"address","internalType":"address"}],"outputs":[{"name":"","type":"bool","internalType":"bool"}],"stateMutability":"view"},{"type":"function","name":"nextTopicId","inputs":[],"outputs":[{"name":"","type":"uint256","internalType":"uint256"}],"stateMutability":"view"},{"type":"function","name":"topics","inputs":[{"name":"","type":"uint256","internalType":"uint256"}],"outputs":[{"name":"creator","type":"address","internalType":"address"},{"name":"metadataCid","type":"string","internalType":"string"},{"name":"endTimestamp","type":"uint256","internalType":"uint256"},{"name":"yesVotes","type":"uint256","internalType":"uint256"},{"name":"noVotes","type":"uint256","internalType":"uint256"}],"stateMutability":"view"},{"type":"function","name":"voteOnTopic","inputs":[{"name":"topicId","type":"uint256","internalType":"uint256"},{"name":"support","type":"bool","internalType":"bool"}],"outputs":[],"stateMutability":"nonpayable"},{"type":"event","name":"TopicCreated","inputs":[{"name":"topicId","type":"uint256","indexed":true,"internalType":"uint256"},{"name":"creator","type":"address","indexed":true,"internalType":"address"},{"name":"metadataCid","type":"string","indexed":false,"internalType":"string"},{"name":"endTimestamp","type":"uint256","indexed":false,"internalType":"uint256"}],"anonymous":false},{"type":"event","name":"VoteCast","inputs":[{"name":"topicId","type":"uint256","indexed":true,"internalType":"uint256"},{"name":"voter","type":"address","indexed":true,"internalType":"address"},{"name":"support","type":"bool","indexed":false,"internalType":"bool"}],"anonymous":false},{"type":"error","name":"AlreadyVoted","inputs":[]},{"type":"error","name":"DurationOutOfRange","inputs":[]},{"type":"error","name":"EmptyCID","inputs":[]},{"type":"error","name":"TopicNotFound","inputs":[]},{"type":"error","name":"VotingClosed","inputs":[]}],"bytecode":{"object":"0x6080604052348015600e575f5ffd5b50610fa48061001c5f395ff3fe608060405234801561000f575f5ffd5b506004361061007b575f3560e01c8063c5c8e17311610059578063c5c8e17314610101578063c8c410c814610131578063d8f7fa9c14610163578063dc296ae11461017f5761007b565b80630f5de4b21461007f57806318d9adab1461009d57806343859632146100d1575b5f5ffd5b6100876101af565b6040516100949190610789565b60405180910390f35b6100b760048036038101906100b291906107dd565b6101b5565b6040516100c89594939291906108b7565b60405180910390f35b6100eb60048036038101906100e69190610939565b61028b565b6040516100f89190610991565b60405180910390f35b61011b60048036038101906101169190610ad6565b6102b5565b6040516101289190610789565b60405180910390f35b61014b600480360381019061014691906107dd565b61047f565b60405161015a93929190610b30565b60405180910390f35b61017d60048036038101906101789190610b8f565b6104b2565b005b61019960048036038101906101949190610939565b61070f565b6040516101a69190610991565b60405180910390f35b60025481565b5f602052805f5260405f205f91509050805f015f9054906101000a900473ffffffffffffffffffffffffffffffffffffffff16908060010180546101f890610bfa565b80601f016020809104026020016040519081016040528092919081815260200182805461022490610bfa565b801561026f5780601f106102465761010080835404028352916020019161026f565b820191905f5260205f20905b81548152906001019060200180831161025257829003601f168201915b5050505050908060020154908060030154908060040154905085565b6001602052815f5260405f20602052805f5260405f205f915091509054906101000a900460ff1681565b5f5f8351036102f0576040517f63ee91d000000000000000000000000000000000000000000000000000000000815260040160405180910390fd5b5f8211158061030157506276a70082115b15610338576040517f7cdd5ac500000000000000000000000000000000000000000000000000000000815260040160405180910390fd5b60025f81548092919061034a90610c57565b9190505590505f824261035d9190610c9e565b90506040518060a001604052803373ffffffffffffffffffffffffffffffffffffffff1681526020018581526020018281526020015f81526020015f8152505f5f8481526020019081526020015f205f820151815f015f6101000a81548173ffffffffffffffffffffffffffffffffffffffff021916908373ffffffffffffffffffffffffffffffffffffffff16021790555060208201518160010190816104059190610e71565b506040820151816002015560608201518160030155608082015181600401559050503373ffffffffffffffffffffffffffffffffffffffff16827f47208c1105da21340d2ab62369dbc0bddfed533adfc522509dd7a06980860b538684604051610470929190610f40565b60405180910390a35092915050565b5f5f5f5f5f5f8681526020019081526020015f209050806003015481600401548260020154935093509350509193909250565b5f5f5f8481526020019081526020015f2090505f73ffffffffffffffffffffffffffffffffffffffff16815f015f9054906101000a900473ffffffffffffffffffffffffffffffffffffffff1673ffffffffffffffffffffffffffffffffffffffff160361054c576040517f04a29d5500000000000000000000000000000000000000000000000000000000815260040160405180910390fd5b428160020154101561058a576040517f66b6cb4a00000000000000000000000000000000000000000000000000000000815260040160405180910390fd5b60015f8481526020019081526020015f205f3373ffffffffffffffffffffffffffffffffffffffff1673ffffffffffffffffffffffffffffffffffffffff1681526020019081526020015f205f9054906101000a900460ff161561061a576040517f7c9a1cf900000000000000000000000000000000000000000000000000000000815260040160405180910390fd5b6001805f8581526020019081526020015f205f3373ffffffffffffffffffffffffffffffffffffffff1673ffffffffffffffffffffffffffffffffffffffff1681526020019081526020015f205f6101000a81548160ff02191690831515021790555081156106a157806003015f81548092919061069790610c57565b91905055506106bb565b806004015f8154809291906106b590610c57565b91905055505b3373ffffffffffffffffffffffffffffffffffffffff16837fe71fcdac32df1877c1700e7bda2a03157e20993363a28fc35ac495cefc76e4d4846040516107029190610991565b60405180910390a3505050565b5f60015f8481526020019081526020015f205f8373ffffffffffffffffffffffffffffffffffffffff1673ffffffffffffffffffffffffffffffffffffffff1681526020019081526020015f205f9054906101000a900460ff16905092915050565b5f819050919050565b61078381610771565b82525050565b5f60208201905061079c5f83018461077a565b92915050565b5f604051905090565b5f5ffd5b5f5ffd5b6107bc81610771565b81146107c6575f5ffd5b50565b5f813590506107d7816107b3565b92915050565b5f602082840312156107f2576107f16107ab565b5b5f6107ff848285016107c9565b91505092915050565b5f73ffffffffffffffffffffffffffffffffffffffff82169050919050565b5f61083182610808565b9050919050565b61084181610827565b82525050565b5f81519050919050565b5f82825260208201905092915050565b8281835e5f83830152505050565b5f601f19601f8301169050919050565b5f61088982610847565b6108938185610851565b93506108a3818560208601610861565b6108ac8161086f565b840191505092915050565b5f60a0820190506108ca5f830188610838565b81810360208301526108dc818761087f565b90506108eb604083018661077a565b6108f8606083018561077a565b610905608083018461077a565b9695505050505050565b61091881610827565b8114610922575f5ffd5b50565b5f813590506109338161090f565b92915050565b5f5f6040838503121561094f5761094e6107ab565b5b5f61095c858286016107c9565b925050602061096d85828601610925565b9150509250929050565b5f8115159050919050565b61098b81610977565b82525050565b5f6020820190506109a45f830184610982565b92915050565b5f5ffd5b5f5ffd5b7f4e487b71000000000000000000000000000000000000000000000000000000005f52604160045260245ffd5b6109e88261086f565b810181811067ffffffffffffffff82111715610a0757610a066109b2565b5b80604052505050565b5f610a196107a2565b9050610a2582826109df565b919050565b5f67ffffffffffffffff821115610a4457610a436109b2565b5b610a4d8261086f565b9050602081019050919050565b828183375f83830152505050565b5f610a7a610a7584610a2a565b610a10565b905082815260208101848484011115610a9657610a956109ae565b5b610aa1848285610a5a565b509392505050565b5f82601f830112610abd57610abc6109aa565b5b8135610acd848260208601610a68565b91505092915050565b5f5f60408385031215610aec57610aeb6107ab565b5b5f83013567ffffffffffffffff811115610b0957610b086107af565b5b610b1585828601610aa9565b9250506020610b26858286016107c9565b9150509250929050565b5f606082019050610b435f83018661077a565b610b50602083018561077a565b610b5d604083018461077a565b949350505050565b610b6e81610977565b8114610b78575f5ffd5b50565b5f81359050610b8981610b65565b92915050565b5f5f60408385031215610ba557610ba46107ab565b5b5f610bb2858286016107c9565b9250506020610bc385828601610b7b565b9150509250929050565b7f4e487b71000000000000000000000000000000000000000000000000000000005f52602260045260245ffd5b5f6002820490506001821680610c1157607f821691505b602082108103610c2457610c23610bcd565b5b50919050565b7f4e487b71000000000000000000000000000000000000000000000000000000005f52601160045260245ffd5b5f610c6182610771565b91507fffffffffffffffffffffffffffffffffffffffffffffffffffffffffffffffff8203610c9357610c92610c2a565b5b600182019050919050565b5f610ca882610771565b9150610cb383610771565b9250828201905080821115610ccb57610cca610c2a565b5b92915050565b5f819050815f5260205f209050919050565b5f6020601f8301049050919050565b5f82821b905092915050565b5f60088302610d2d7fffffffffffffffffffffffffffffffffffffffffffffffffffffffffffffffff82610cf2565b610d378683610cf2565b95508019841693508086168417925050509392505050565b5f819050919050565b5f610d72610d6d610d6884610771565b610d4f565b610771565b9050919050565b5f819050919050565b610d8b83610d58565b610d9f610d9782610d79565b848454610cfe565b825550505050565b5f5f905090565b610db6610da7565b610dc1818484610d82565b505050565b5b81811015610de457610dd95f82610dae565b600181019050610dc7565b5050565b601f821115610e2957610dfa81610cd1565b610e0384610ce3565b81016020851015610e12578190505b610e26610e1e85610ce3565b830182610dc6565b50505b505050565b5f82821c905092915050565b5f610e495f1984600802610e2e565b1980831691505092915050565b5f610e618383610e3a565b9150826002028217905092915050565b610e7a82610847565b67ffffffffffffffff811115610e9357610e926109b2565b5b610e9d8254610bfa565b610ea8828285610de8565b5f60209050601f831160018114610ed9575f8415610ec7578287015190505b610ed18582610e56565b865550610f38565b601f198416610ee786610cd1565b5f5b82811015610f0e57848901518255600182019150602085019450602081019050610ee9565b86831015610f2b5784890151610f27601f891682610e3a565b8355505b6001600288020188555050505b505050505050565b5f6040820190508181035f830152610f58818561087f565b9050610f67602083018461077a565b939250505056fea2646970667358221220939448f58c410a7a1cafcc6e14adfcca68f397a1f43d7495ff08b4964962655464736f6c634300081d0033","linkReferences":{}},"methodIdentifiers":{"createTopic(string,uint256)":"c5c8e173","getTopicInfo(uint256)":"c8c410c8","hasUserVoted(uint256,address)":"dc296ae1","hasVoted(uint256,address)":"43859632","nextTopicId()":"0f5de4b2","topics(uint256)":"18d9adab","voteOnTopic(uint256,bool)":"d8f7fa9c"},"id":16}